S016000044454C41595F4558414D504C45322E7372656302
S113000048200020210D00001D0D00001D0D0000E2
S113001000000000000000000000000000000000DC
S11300200000000000000000000000001D0D0000A2
S113003000000000000000001D0D00001D0D000068
S11300401D0D00001D0D00001D0D00001D0D000004
S11300501D0D00001D0D00001D0D00001D0D0000F4
S11300601D0D00001D0D00001D0D00001D0D0000E4
S11300701D0D00001D0D00001D0D00001D0D0000D4
S11300801D0D00001D0D00001D0D00001D0D0000C4
S11300901D0D00001D0D00001D0D00001D0D0000B4
S11300A01D0D00001D0D00001D0D00001D0D0000A4
S11300B01D0D00001D0D00001D0D000010B5064CA7
S11300C02378002B07D1054B002B02D0044800E015
S11300D000BF0123237010BD0C00002000000000AD
S11300E06C0F0000084B10B5002B03D007490848DB
S11300F000E000BF07480368002B00D110BD064B89
S1130100002BFBD09847F9E7000000001000002006
S11301106C0F00006C0F000000000000094B9842B7
S11301200CD0094B984207D0084A0023904201D0D2
S113013018007047023302E0012300E00023DBB221
S1130140F6E7C0460024004200280042002C00428A
S1130150F8B50F0014001D0006683000104B9847D6
S1130160104B1A5C1723BA4201D81800F8BD80005E
S11301700D4BC2581723A242F7D3002D0BD1802276
S11301805200BA40B3681A42FCD11037BF00F619C6
S113019074600023E9E71C37BF00BC510023E4E787
S11301A01D010000140F00001C0F000010B5040016
S11301B008004F4B98470023236080004D4A825823
S11301C06260A372E372237363722372E361236236
S11301D06362A36223756375A375E37523766376FF
S11301E023746374A374E3742C22A3540132A354C0
S11301F00132A3540132A3540132A3540132A35453
S11302000132A3540132A3540132A3540132A35442
S11302100132A3540132A3540132A3540132A35432
S11302200132A3540132A3540132A3540132A35422
S11302300132A3540132A3540132A3540132A35412
S11302400132A3540132A3540132A3540132A35402
S11302500132A3540132A3540132A3540132A354F2
S11302600132A3540132A3540132A3540132A354E2
S11302700132A3540132A3540132A3540132A354D2
S11302800132A3540132A3540132A3540132A354C2
S11302900132A3540132A3544132A354A365A3678A
S11302A00132A354E365E3670132A35423661A3A87
S11302B0A3501B32A3546366173AA3501832A354B5
S11302C0A366143AA3501532A354E366113AA3501B
S11302D01232A35423670E3AA3500F32A354636718
S11302E00B3AA35001210C32A1540132A35410BD86
S11302F01D0100001C0F0000F0B5DE4657464E46B7
S11303004546E0B591B001900C0015000800C94BBA
S1130310984703000100C848C2699E00C74FF759B7
S11303203A43C26122681C20920706D511B03CBC36
S113033090469946A246AB46F0BD22680127174075
S1130340F4D1BF48325817202E68B242EED36E68FB
S1130350B242EBD3E869824200D265E1286A824264
S113036000D263E1686A824200D261E1A86A8242F3
S113037000D26DE198229446AC4462460892002073
S113038003E001300132082808D01678002EF8D096
S1130390AC4E765C8642F4DC1720C7E7002202925A
S11303A080204004844602E00132042A0ED0A818BA
S11303B0007C0128F8D1A448405C904200DA49E16D
S11303C060469040029E06430296EDE79D32AA5C89
S11303D0002A04D0802212010299114302912A7A40
S11303E0511E8A41920006926A7A012A22D0964AC4
S11303F0D25C110005923522AA5C914200D833E107
S11304002C21695C0F2900D92EE1287B0A90E87A17
S11304100B902D208246AA44002004970EAE079626
S1130420C0263601B1468446A046280055460993A5
S1130430824635E0069911430691D8E792024F4669
S11304403A400A4319798B4603215F4639400A43EF
S113045016435A79520160210A40324399790902BC
S1130460C026B6000E401643DA791203E021C90112
S11304700A4016433443039A1443204362460799BF
S11304805050042A2AD09A7C0599914200D8EBE076
S1130490597A0A3504239B46DC440F2900D9E3E04A
S11304A00906F0231B0519402B002E783604FF2083
S11304B00004064068788024002800D1049C9878C1
S11304C008270397002801D104980390D87883461D
S11304D010205F46002FB1D10498AFE7444655463B
S11304E0099B584AD25C914651465031504641309E
S11304F0002700220126B2460226FF36B346802694
S11305007602B046A4461C004B460FE00678002E47
S113051007D0934200D8A1E0022E14D0564696404C
S11305203743013201310230082A10D00E78002EF0
S1130530ECD0934200D88FE0464696403743067885
S1130540002EE9D1EDE75E4696403743E9E7994648
S1130550230064466A7E120130211140287E07225E
S1130560024011430022802040020E0002E00132CA
S1130570042A7BD0A918097D0029F8D00599914255
S11305806EDD010091400E43F1E701340435B442BD
S113059014D02378002BF8D00CAB4A469A70002371
S11305A00CAAD37013002022AA1812781A704A4693
S11305B05A7028781900254B9847E6E744465D466B
S11305C00A9B1B030B9A12021343029A13432360E0
S11305D00422A3681A42FCD1FF2323710422A368D6
S11305E01A42FCD16B461B7E63710E9BE3600F9B2A
S11305F02361A7615346E3631022A3681A42FCD126
S11306002B6863636B682364059900292ADD1C3514
S1130610002201CD130010339B00E318586001320F
S11306208A42F6DB002081E617207FE617207DE66C
S113063017207BE61D01000000080040080F0000A1
S11306401C0F0000280F0000140F0000C10C000054
S113065017206BE6172069E6172067E6172065E682
S1130660172063E6002061E617205FE6B246019991
S11306700C60A022AA5C0A710DA9AA7A0A700C4A1D
S1130680D65C30000B4B984730000B4B98474B46D9
S1130690002B95DD58239846A8444E469836AE194B
S11306A0573B9946AB464546A046089C71E7C04671
S11306B0180F0000F50B0000850B000010B503793E
S11306C0014CA04710BDC04651010000F0B5D6460C
S11306D04F4680B5ABB0434B9847434D01AC29001E
S11306E02000424EB04742492000B047414B63606E
S11306F002222276A362E361236201239D32A35482
S1130700723A626705216732A1500432A3545A3AFF
S1130710A2653A3AA267943163540833E365E26709
S1130720354E220029003000344B984733680222AA
S113073099680A42FCD11A6802210A431A60304BB4
S11307409847304D304E2B4C304B9946304FFF3C40
S1130750220003212848C8470220B847AC42F6D1FA
S113076000272A4B9A462A4CFF373A000321224895
S1130770D0470220A047B742F6D11E4F234B9A46DA
S1130780234CFF3F3A0000211B48D0470220A047DA
S1130790AF42F6D100271D4B9A461D4CFF373A0055
S11307A000211548D0470220A047B742F6D1114C8A
S11307B0164B9A46164FFF3C220001210E48D047A3
S11307C00220B847AC42F6D10024104B9A46104F91
S11307D0FF34220001210848D0470220B847B44220
S11307E0F6D1B0E7F10C000000240042AD01000096
S11307F000280042FFFF00003C000020F902000036
S113080015080000FD02000002FD0000BD06000006
S11308105508000070B50020084B98470500084CA7
S1130820FA218900A047074B186007492800A04710
S1130830064B18600522064B1A6070BD190B0000A8
S1130840A90D00000000002040420F000400002019
S113085010E000E030B5084B1C68084A00258021F0
S11308604902013807D3002CFBD05460956013680B
S11308700B42FCD0F5E730BD0000002010E000E0A2
S11308800C4B1B68002B06D1EFF31083002B07D011
S11308900022094B1A70074A13680133136070472A
S11308A072B6BFF35F8F0022044B1A700132024B01
S11308B01A70F0E7280000202C0000200800002017
S11308C0084B1A68013A1A601B68002B09D1064BC1
S11308D01B78002B05D00122044B1A70BFF35F8FE5
S11308E062B67047280000202C0000200800002079
S11308F0F0B583B001AC012565700027A7702570A1
S113090021000F20064EB047802212028223DB050D
S11309109A612770657021001C20B04703B0F0BDB8
S11309202509000000B583B001AB80221A700A7853
S11309305A704A789A708A78DA701900014B98478D
S113094003B000BDC10C000010B5072803D8800017
S11309500F4B1B589F46002018E00E4B586815E0BB
S11309600D4B597D0907090F01310C480C4B984771
S11309700CE0084B986809E0074B1B7F00209B079D
S113098004D5044B186801E08020000210BDC04665
S11309902C0F00003000002000100040006CDC022E
S11309A0A90D000000B585B00322104B9A60104ACF
S11309B053681E218B4353600E4A137D62310B43EF
S11309C013750D4B984701230C4A137101A94B6011
S11309D000234B7006220A700B724B720020084BE6
S11309E098470020074B984705B000BD0018004009
S11309F00040004100100040090A000000080040C7
S1130A002D0A0000D90A0000064A536980210B43CD
S1130A1053610122044B1A7019000B781342FCD164
S1130A207047C04600080040001C004070B5040038
S1130A300D784B78002B02D08023DB001D434B7ACA
S1130A40002B02D080231B011D43486801280FD9C5
S1130A50431E184231D102282DD90223002201322B
S1130A605B009842FBD880235B011D4312041543AD
S1130A700B7A002B02D080239B011D430426A64041
S1130A801149124A4B6813401E42FBD1104B984740
S1130A90A4000D4B9C466444226A80235B001A40E8
S1130AA02A4322626146094A4B6813401E42FBD125
S1130AB0084B984770BD0022D5E7000480239B00B3
S1130AC018430543D4E7C046001C0040FC0700005F
S1130AD081080000C108000010B50400042282400F
S1130AE009480A4943680B401A42FBD1084B98470E
S1130AF0A400054B9C466444226A80235B00134394
S1130B002362044B984710BD001C0040FC07000002
S1130B1081080000C1080000F8B5040004228240E6
S1130B201248134943680B401A42FBD1114B9847B2
S1130B300E4F0834A400E0594007400F0E4B98476D
S1130B400600E559ED04ED0FE459240C0B4B9847CE
S1130B50002D07D1012C07D921003000084B9847FC
S1130B60060001E00134E6403000F8BD001C0040FE
S1130B70FC0700008108000049090000C1080000CA
S1130B80A90D000010B50400094B9847A000094BBB
S1130B909C4660448022835840210B43835040315B
S1130BA0403A43581A42FCD0034B984710BDC04604
S1130BB081080000001C0040C108000010B50400BA
S1130BC0094B9847A000094B9C46604480228358F7
S1130BD040218B4383504031403A43581A42FCD160
S1130BE0034B984710BDC04681080000001C00401C
S1130BF0C108000070B504000D00054B98472A7821
S1130C000F2313402034A400024AA35070BDC046F1
S1130C10BD0B0000001C004030B5D378002B35D14B
S1130C201378802B29D01B06802464022343547834
S1130C300225AC4306D19478002C20D18024A40250
S1130C40234341605478013C012C1CD90D042D0C24
S1130C50A024E4052C431C4384620D0CD0242406F8
S1130C602C431C438462D478002C22D15B031CD512
S1130C709378012B1ED0416117E00023D7E7C024ED
S1130C80E4022343DDE70D4C2340DFE741600C041D
S1130C90240CA023DB05234383620C0CD0231B0606
S1130CA023438362D378002B03D15378013B012B78
S1130CB002D930BD8161F8E78160FAE7FFFFFBFFED
S1130CC010B50A00C1090023002905D14309DB013D
S1130CD08221C9058C4663441F24204001218140A0
S1130CE01800014B984710BD190C00007047000014
S1130CF010B5054B9847054B9847054B9847054B4E
S1130D009847054B984710BDA5090000F10800005D
S1130D10ED0C0000ED0C0000ED0C0000FEE70000FF
S1130D2010B5174A174B9A4211D01A00164B9A4223
S1130D300DD2164A03339B1A9B0801339B000022F1
S1130D4010480F498C58845004329A42FAD1104A00
S1130D50104B9A420AD2D3430E495B1803218B43AA
S1130D6004339B18002102C29342FCD10A4AFF219A
S1130D700A4B8B4393600A4B98470A4B9847FEE70C
S1130D806C0F0000000000200C0000200400002074
S1130D900C0000204400002000ED00E000000000F2
S1130DA0C10E0000CD060000002243088B4274D31C
S1130DB003098B425FD3030A8B4244D3030B8B4258
S1130DC028D3030C8B420DD3FF22090212BA030C61
S1130DD08B4202D31212090265D0030B8B4219D342
S1130DE000E0090AC30B8B4201D3CB03C01A524162
S1130DF0830B8B4201D38B03C01A5241430B8B42AA
S1130E0001D34B03C01A5241030B8B4201D30B0392
S1130E10C01A5241C30A8B4201D3CB02C01A5241B9
S1130E20830A8B4201D38B02C01A5241430A8B427C
S1130E3001D34B02C01A5241030A8B4201D30B0265
S1130E40C01A5241CDD2C3098B4201D3CB01C01A7F
S1130E50524183098B4201D38B01C01A5241430989
S1130E608B4201D34B01C01A524103098B4201D377
S1130E700B01C01A5241C3088B4201D3CB00C01AE4
S1130E80524183088B4201D38B00C01A524143085C
S1130E908B4201D34B00C01A5241411A00D2014681
S1130EA0524110467047FFE701B5002000F006F8F4
S1130EB002BDC0460029F7D076E770477047C046A8
S1130EC070B500260C4D0D4C641BA410A64209D12C
S1130ED0002600F03BF80A4D0A4C641BA410A642FD
S1130EE005D170BDB300EB5898470136EEE7B30067
S1130EF0EB5898470136F2E7580F0000580F0000EE
S1130F00580F00005C0F0000000200000004000005
S1130F1000080000040202001C1C1D00FFFFFF006B
S1130F20FFFFFF00FFFF0000080402005A09000051
S1130F3056090000560900008809000088090000CD
S1130F40720900006009000078090000F8B5C04685
S1130F50F8BC08BC9E467047E5000000F8B5C046E2
S10F0F60F8BC08BC9E467047BD000000B1
S10F0F6C401F000008000000010000000D
S9030D21CE
