S016000044454C41595F4558414D504C45322E7372656302
S11300007020002099160000951600009516000037
S113001000000000000000000000000000000000DC
S11300200000000000000000000000009516000021
S11300300000000000000000951600009516000066
S11300409516000095160000951600009516000000
S113005095160000951600009516000095160000F0
S113006095160000951600009516000095160000E0
S113007095160000951600009516000095160000D0
S113008095160000951600009516000095160000C0
S113009095160000951600009516000095160000B0
S11300A09516000041070000510700009516000056
S11300B095160000951600009516000010B5064C24
S11300C02378002B07D1054B002B02D0044800E015
S11300D000BF0123237010BD0C00002000000000AD
S11300E0481A0000084B10B5002B03D007490848F4
S11300F000E000BF07480368002B00D110BD064B89
S1130100002BFBD09847F9E7000000001000002006
S1130110481A0000481A000000000000064B9842EC
S113012008D0064A0023904201D0180070470133DA
S1130130DBB2FAE70023FBE7004400420048004238
S113014010B500230022037043708370C370002134
S113015003830362C36101240471C0246401C48065
S1130160017242728272C27202732A24025542736D
S11301708273C27303610275063C0255C38403850E
S1130180417510BDF0B5DE4657464E464546E0B5CE
S11301909FB005000E0017000800984B9847040014
S11301A001902E60964AD3698000964941580B43CA
S11301B0D36133780520DB0706D51FB03CBC9046DD
S11301C09946A246AB46F0BD2A68138C9BB2002B1D
S11301D0FBD133781C209B07EFD47B782B71002B49
S11301E004D1894AD36904210B43D3610023AB6052
S11301F0EB602B61AB76EB762B832B77A300834AE2
S11302009D502A23FB5C002B05D13B7B002B02D1A4
S113021001336B7701E000236B772B689A463B78B8
S113022004AA13707A4B1E5D11003000794B984775
S11302303000794B98473B79984606AE774B9C46FD
S11302403200190049C949C249C949C249C949C208
S113025049C949C212A9634630330A0043CB43C299
S113026043CB43C243CB43C243CB43C2019B002B8A
S113027004D012A9012B02D0002100E006A9A3009A
S1130280674A9B589B46984522D9FB88984606AEF8
S1130290624B9C463200190049C949C249C949C246
S11302A049C949C249C949C212A9634630330A003F
S11302B043CB43C243CB43C243CB43C243CB43C2EE
S11302C0019A002A12D012AB012A10D000230EE0AA
S11302D043469800405805A900234B70CB708B709F
S11302E001330B70C0B24F4B9847CEE706ABD845ED
S11302F00AD90021002601239946484B98460394C5
S11303005B460293AB4620E042469000C05805A9E4
S113031000234B70CB708B7001330B70C0B2414B18
S11303209847E6E706AB8900C85805A900234B7037
S1130330CB708B704B460B70C0B23A4B984701366A
S1130340F6B23100029B9E4223D84B46B3403A6931
S11303501A42F4D006A80300424631CA31C331CA56
S113036031C331CA31C331CA31C312A84346303311
S1130370020031CB31C231CB31C231CB31C231CBAE
S113038031C2019A002ACDD012AB012ACBD000236E
S1130390C9E75D46039C7B7B9B01BA7BD201134377
S11303A0DBB2524613703B7DDB017A781343DBB238
S11303B052469370FB78342B00D94FE19B001A4AC4
S11303C0D3589F4604221026022132E0797A3A7AE1
S11303D010262EE00622102601212AE008221026EB
S11303E0002126E000223026002122E000222026DF
S11303F000211EE00022002600211AE01D01000059
S113040000080040B4190000001800403C0000201F
S1130410DC1900006D150000FD14000054190000E3
S1130420D41900003916000080180000022210269A
S11304300121090170230B401343524613732A68A8
S1130440138C9BB2002BFBD17B7D17203F2B00D953
S1130450B3E6FA7BD2011343DBB2524653732A68E4
S1130460138C9BB2002BFBD1BB78524653702423D0
S1130470FB5CDB003A7B92001A43FB7A1343BA7AA3
S1130480520013433343524653812A68138C9BB260
S1130490002BFBD13B8B002B20D0102E00D1BFE0D2
S11304A000D87FE0202E00D19CE0302E16D1FA7ABD
S11304B0002A0AD0FA6980321720FF2A00D97CE684
S11304C03A6A8032FF2A00D977E61720FA69FF2AB0
S11304D000DD72E63A6AFF2A00DD6EE65246528972
S11304E01343524653812A68138C9BB2002BFBD1D1
S11304F0BB8B5246D3812A68138C9BB2002BFBD151
S11305003B8C524613822A68138C9BB2002BFBD17E
S11305103B79FA881343524613812A68138C9BB2A1
S1130520002BFBD12A33FB5C5246D3700723137193
S11305301D33FB5C002B1DD0FB8C494A17209342D2
S113054000D93AE6524653822A68138C9BB2002B98
S1130550FBD13A8D80231B01D31841499BB217204C
S11305608B4200D929E653469A822A68138C9BB29F
S1130570002BFBD1A2003B4BD3583B49095D1B68C0
S1130580CB401B02E021C9000B403849525838497E
S1130590095D1268CA4007210A40134352469385F5
S11305A000200AE6002E99D1FA7A002A0FD0FA69BF
S11305B0802109018C466244294917208A4200D9C6
S11305C0FBE53A6A624426498A4200D9F5E5244AA1
S11305D01720F969914200DDEFE5396A914200DDA7
S11305E0EBE57BE7FA7A002A0FD0FA6980218900CB
S11305F08C4662441F4917208A4200D9DDE53A6AD5
S113060062441C498A4200D9D7E51A4A1720F9697D
S1130610914200DDD1E5396A914200DDCDE55DE727
S1130620FA7A002A0FD0FA69802109028C466244C2
S1130630114917208A4200D9BFE53A6A62440E493B
S11306408A4200D9B9E50C4A1720F969914200DDC4
S1130650B3E5396A914200DDAFE53FE71720ACE529
S1130660FF0F0000C8190000D0190000BC190000D9
S1130670C4190000FF030000FFFF000070B58000F4
S11306802E4BC45823689A795D791540EA072AD518
S113069001229A716269931C636123689B8C9BB2EB
S11306A01380238B013B9BB22383002B15D0637FE4
S11306B0002B18D02268D3795BB2002B13DB138C88
S11306C09BB2002BFBD1137E02210B4313762268CD
S11306D0138C9BB2002BFBD105E00123226813711C
S11306E0237F052B16D06B0708D50423226893714A
S11306F0E37E9B0702D5A37E9B0717D4AB0708D5DF
S1130700022322689371E37E5B0702D5A37E5B0715
S113071010D470BD00232377E37EDB07E3D5A37EEB
S1130720DB07E0D52000A3689847DCE72000E368F6
S11307309847E3E7236920009847EAE73C00002054
S113074010B50020014B984710BDC0467D0600003F
S113075010B50120014B984710BDC0467D0600002E
S1130760064A137802210B4313700120536819427F
S1130770FCD153681842F9D17047C04600280040A4
S1130780064A137802218B431370012053681942DF
S1130790FCD153681842F9D17047C0460028004084
S11307A000B583B0124A51698023DB000B435361C7
S11307B001A900230B7002200E4B984702200E4B18
S11307C098470E4A137801210B431370013101201D
S11307D053681942FCD153681842F9D1074A137877
S11307E010218B431370064B984703B000BDC046DD
S11307F0000800406D150000FD14000000280040B2
S113080061070000002303604360012202728372C7
S11308100132C27243727047F0B583B005000C0018
S11308201C4B984701A900234B70CB7023790B70A4
S1130830237A8B702078184B984700211F2D00D8FD
S1130840164907222A409200E77AA37A002B01D0A6
S113085008231F43EB089B00CB18D8690F2696404A
S1130860B04397403A000243DA61637A002B0BD11C
S11308708A690123AB40DB431B041B0C13408B61CF
S1130880074B984703B0F0BD8A690123AB4013437B
S11308908B61F5E78107000039160000002800404D
S11308A061070000094B98420CD0094B984207D0CD
S11308B0084A0023904201D018007047023302E036
S11308C0012300E00023DBB2F6E7C0460024004227
S11308D000280042002C0042F8B50F0014001D004F
S11308E006683000104B9847104B1A5C1723BA4225
S11308F001D81800F8BD80000D4BC2581723A2423E
S1130900F7D3002D0BD180225200BA40B3681A42AB
S1130910FCD11037BF00F61974600023E9E71C37D7
S1130920BF00BC510023E4E7A5080000EC19000057
S1130930F419000010B5040008004F4B9847002339
S1130940236080004D4A82586260A372E37223736D
S113095063722372E36123626362A3622375637526
S1130960A375E3752376637623746374A374E374C5
S11309702C22A3540132A3540132A3540132A354B0
S11309800132A3540132A3540132A3540132A354BB
S11309900132A3540132A3540132A3540132A354AB
S11309A00132A3540132A3540132A3540132A3549B
S11309B00132A3540132A3540132A3540132A3548B
S11309C00132A3540132A3540132A3540132A3547B
S11309D00132A3540132A3540132A3540132A3546B
S11309E00132A3540132A3540132A3540132A3545B
S11309F00132A3540132A3540132A3540132A3544B
S1130A000132A3540132A3540132A3540132A3543A
S1130A100132A3540132A3540132A3540132A3542A
S1130A204132A354A365A3670132A354E365E3678A
S1130A300132A35423661A3AA3501B32A3546366AB
S1130A40173AA3501832A354A366143AA35015328C
S1130A50A354E366113AA3501232A35423670E3A07
S1130A60A3500F32A35463670B3AA35001210C32F5
S1130A70A1540132A35410BDA5080000F4190000CC
S1130A80F0B5DE4657464E464546E0B591B0019076
S1130A900C0015000800C94B984703000100C84822
S1130AA0C2699E00C74FF7593A43C26122681C20AD
S1130AB0920706D511B03CBC90469946A246AB4677
S1130AC0F0BD226801271740F4D1BF4832581720DF
S1130AD02E68B242EED36E68B242EBD3E86982422A
S1130AE000D265E1286A824200D263E1686A8242E8
S1130AF000D261E1A86A824200D26DE19822944654
S1130B00AC4462460892002003E001300132082818
S1130B1008D01678002EF8D0AC4E765C8642F4DC11
S1130B201720C7E70022029280204004844602E096
S1130B300132042A0ED0A818007C0128F8D1A44858
S1130B40405C904200DA49E160469040029E0643D0
S1130B500296EDE79D32AA5C002A04D0802212019D
S1130B600299114302912A7A511E8A4192000692F7
S1130B706A7A012A22D0964AD25C11000592352263
S1130B80AA5C914200D833E12C21695C0F2900D979
S1130B902EE1287B0A90E87A0B902D208246AA4405
S1130BA0002004970EAE0796C0263601B14684464F
S1130BB0A046280055460993824635E0069911431C
S1130BC00691D8E792024F463A400A4319798B4678
S1130BD003215F4639400A4316435A795201602182
S1130BE00A40324399790902C026B6000E401643E2
S1130BF0DA791203E021C9010A4016433443039A07
S1130C0014432043624607995050042A2AD09A7C00
S1130C100599914200D8EBE0597A0A3504239B46A2
S1130C20DC440F2900D9E3E00906F0231B05194031
S1130C302B002E783604FF200004064068788024B8
S1130C40002800D1049C987808270397002801D134
S1130C5004980390D878834610205F46002FB1D1C2
S1130C600498AFE744465546099B584AD25C9146DE
S1130C705146503150464130002700220126B246E9
S1130C800226FF36B34680267602B046A4461C00F0
S1130C904B460FE00678002E07D0934200D8A1E01F
S1130CA0022E14D0564696403743013201310230A9
S1130CB0082A10D00E78002EECD0934200D88FE092
S1130CC04646964037430678002EE9D1EDE75E4666
S1130CD096403743E9E79946230064466A7E120149
S1130CE030211140287E0722024011430022802037
S1130CF040020E0002E00132042A7BD0A918097DCB
S1130D000029F8D0059991426EDD010091400E430F
S1130D10F1E701340435B44214D02378002BF8D021
S1130D200CAB4A469A7000230CAAD37013002022FD
S1130D30AA1812781A704A465A7028781900254B56
S1130D409847E6E744465D460A9B1B030B9A12024A
S1130D501343029A134323600422A3681A42FCD16A
S1130D60FF2323710422A3681A42FCD16B461B7E25
S1130D7063710E9BE3600F9B2361A7615346E3639A
S1130D801022A3681A42FCD12B6863636B68236446
S1130D90059900292ADD1C35002201CD13001033EA
S1130DA09B00E318586001328A42F6DB002081E69A
S1130DB017207FE617207DE617207BE6A5080000B4
S1130DC000080040E0190000F4190000001A0000B7
S1130DD0EC1900003916000017206BE6172069E6AD
S1130DE0172067E6172065E6172063E6002061E612
S1130DF017205FE6B24601990C60A022AA5C0A7132
S1130E000DA9AA7A0A700C4AD65C30000B4B98479D
S1130E1030000B4B98474B46002B95DD58239846E2
S1130E20A8444E469836AE19573B9946AB464546BC
S1130E30A046089C71E7C046F01900006D1500003B
S1130E40FD14000010B50379014CA04710BDC04645
S1130E50D9080000F0B5DE4657464E464546E0B593
S1130E60ABB0A74B9847A74D01AC29002000A64E74
S1130E70B047A6492000B047A54B63600222227602
S1130E80A362E361236201239D32A354723A626731
S1130E9005216732A1500432A3545A3AA2653A3A62
S1130EA0A267943163540833E365E267994E2200E4
S1130EB029003000984B98473368022299680A4207
S1130EC0FCD11A6802252A431A60944B984701AC56
S1130ED02000934B984714230193002363602572E9
S1130EE00433E372210004208E4B984720008E4B7C
S1130EF098470A2323718D4D22008D4928008D4B7C
S1130F0098472C68238C9BB2002BFBD120008A4B82
S1130F1098478A4B1B5C1F221A4001239340884A3E
S1130F20136007232371A3712378022213432370D0
S1130F307E4B1A68138C9BB2002BFBD1FA2401332D
S1130F409B46804B984604239946D0E00120B8473D
S1130F507D4B9D420AD0FF3D2A0003216D48B047D6
S1130F60002CF3D02000774B9847F1E70025694E19
S1130F70764F04E00120C047754B9D420AD0FF35EF
S1130F802A0003213000B847002CF3D020006D4B19
S1130F909847F1E75D4602239D432ED15C4E6B4F8B
S1130FA0684B9A4604E00120D047674B9E420AD022
S1130FB0FF3E320000215748B847002CF3D02000F0
S1130FC0604B9847F1E7614F5E4E05E001205D4BB1
S1130FD098475F4B9D4209D0FF352A0000214D48B8
S1130FE0B847002CF2D02000B047F2E75B46002B54
S1130FF003D1474D554F534E0CE05B46032BF8D0BD
S1131000544B5B69DB062BD433E00120B0474E4BD5
S11310109D420AD0FF3D2A0001213E48B847002CDA
S1131020F3D02000474B9847F1E70025474F454E42
S113103004E00120B047464B9D420AD0FF352A0008
S113104001213448B847002CF3D020003D4B984789
S1131050F1E7404B5B69DB060BD55B46032B18D0ED
S11310605B4601339B4610223A4B5A6119203A4B96
S113107098472E4B19680B8C9BB2002BFBD10B7E2F
S1131080022213430B760B8C9BB2002BFBD1012065
S113109004E000239B46E6E710420ED18B79DBB2D5
S11310A002001A404C461C4201D00224224302246E
S11310B01C42F1D04B461A43EEE7888C80B20123E0
S11310C08B718A79D2B213404C46144201D0022467
S11310D023430224144201D04A4613434A461A4287
S11310E001D002238B710A211C4B984784B25B46C2
S11310F0012B00D94EE7064D144E124F2BE7C04684
S1131100691600000024004235090000002800424E
S1131110FFFF000044000020810A0000611100006C
S11311200508000019080000410100004C000020DF
S113113000480042850100001D010000041A00005F
S113114000E100E0A1110000FD020000450E0000D6
S113115002FD000000280040CD110000211700000E
S113116070B50020084B98470500084CFA21890007
S1131170A047074B186007492800A047064B186092
S11311800522064B1A6070BD91140000211700005F
S11311900000002040420F000400002010E000E0A6
S11311A030B5084B1C68084A0025802149020138E3
S11311B007D3002CFBD05460956013680B42FCD01D
S11311C0F5E730BD0400002010E000E030B5084B26
S11311D01C68084A002580214902013807D3002CE5
S11311E0FBD05460956013680B42FCD0F5E730BD2A
S11311F00000002010E000E00C4B1B68002B06D11F
S1131200EFF31083002B07D00022094B1A70074A12
S1131210136801331360704772B6BFF35F8F002207
S1131220044B1A700132024B1A70F0E728000020B8
S11312302C00002008000020084B1A68013A1A60AC
S11312401B68002B09D1064B1B78002B05D001220B
S1131250044B1A70BFF35F8F62B6704728000020FA
S11312602C00002008000020F0B583B001AC01255B
S113127065700027A770257021000F20064EB04727
S1131280802212028223DB059A6127706570210097
S11312901C20B04703B0F0BD9D12000000B583B020
S11312A001AB80221A700A785A704A789A708A7848
S11312B0DA701900014B984703B000BD39160000DD
S11312C010B5072803D880000F4B1B589F460020F9
S11312D018E00E4B586815E00D4B597D0907090FAE
S11312E001310C480C4B98470CE0084B986809E016
S11312F0074B1B7F00209B0704D5044B186801E0B3
S11313008020000210BDC046081A000030000020F2
S113131000100040006CDC022117000000B585B00D
S11313200322104B9A60104A53681E218B4353606A
S11313300E4A137D62310B4313750D4B98470123FD
S11313400C4A137101A94B6000234B7006220A70EA
S11313500B724B720020084B98470020074B9847AC
S113136005B000BD001800400040004100100040DE
S11313708113000000080040A51300005114000070
S1131380064A536980210B4353610122044B1A70AE
S113139019000B781342FCD17047C0460008004086
S11313A0001C004070B504000D784B78002B02D06F
S11313B08023DB001D434B7A002B02D080231B01CA
S11313C01D43486801280FD9431E184231D1022811
S11313D02DD90223002201325B009842FBD88023DE
S11313E05B011D43120415430B7A002B02D08023AA
S11313F09B011D430426A6401149124A4B68134021
S11314001E42FBD1104B9847A4000D4B9C466444EC
S1131410226A80235B001A402A4322626146094AF9
S11314204B6813401E42FBD1084B984770BD002205
S1131430D5E7000480239B0018430543D4E7C04646
S1131440001C0040FC070000F911000039120000E4
S113145010B504000422824009480A4943680B403D
S11314601A42FBD1084B9847A400054B9C466444A0
S1131470226A80235B0013432362044B984710BD08
S1131480001C0040FC070000F911000039120000A4
S1131490F8B50400042282401248134943680B4003
S11314A01A42FBD1114B98470E4F0834A400E0595F
S11314B04007400F0E4B98470600E559ED04ED0F29
S11314C0E459240C0B4B9847002D07D1012C07D964
S11314D021003000084B9847060001E00134E64043
S11314E03000F8BD001C0040FC070000F9110000AA
S11314F0C1120000391200002117000010B50400C9
S1131500094B9847A000094B9C46604480228358AD
S113151040210B4383504031403A43581A42FCD097
S1131520034B984710BDC046F9110000001C004051
S11315303912000010B50400094B9847A000094B6C
S11315409C4660448022835840218B438350403121
S1131550403A43581A42FCD1034B984710BDC04649
S1131560F9110000001C00403912000070B504009D
S11315700D00054B98472A780F2313402034A4000C
S1131580024AA35070BDC04635150000001C00403F
S113159030B5D378002B35D11378802B29D01B0696
S11315A080246402234354780225AC4306D1947802
S11315B0002C20D18024A402234341605478013CB0
S11315C0012C1CD90D042D0CA024E4052C431C4330
S11315D084620D0CD02424062C431C438462D478EA
S11315E0002C22D15B031CD59378012B1ED04161C2
S11315F017E00023D7E7C024E4022343DDE70D4CC2
S11316002340DFE741600C04240CA023DB052343C3
S113161083620C0CD0231B0623438362D378002BF4
S113162003D15378013B012B02D930BD8161F8E726
S11316308160FAE7FFFFFBFF10B50A00C109002330
S1131640002905D14309DB018221C9058C46634485
S11316501F242040012181401800014B984710BDF0
S1131660911500007047000010B5054B9847054BD5
S11316709847054B9847054B9847054B984710BD2D
S11316801D1300006912000065160000A107000088
S113169065160000FEE7000010B5174A174B9A4282
S11316A011D01A00164B9A420DD2164A03339B1AD4
S11316B09B0801339B00002210480F498C5884502A
S11316C004329A42FAD1104A104B9A420AD2D343B6
S11316D00E495B1803218B4304339B18002102C27B
S11316E09342FCD10A4AFF210A4B8B4393600A4B75
S11316F098470A4B9847FEE7481A0000000000206C
S11317000C000020040000200C0000206C000020CD
S113171000ED00E00000000039180000550E000044
S1131720002243088B4274D303098B425FD3030A1C
S11317308B4244D3030B8B4228D3030C8B420DD32F
S1131740FF22090212BA030C8B4202D312120902BD
S113175065D0030B8B4219D300E0090AC30B8B42FB
S113176001D3CB03C01A5241830B8B4201D38B03A9
S1131770C01A5241430B8B4201D34B03C01A52414E
S1131780030B8B4201D30B03C01A5241C30A8B4291
S113179001D3CB02C01A5241830A8B4201D38B027C
S11317A0C01A5241430A8B4201D34B02C01A524120
S11317B0030A8B4201D30B02C01A5241CDD2C30992
S11317C08B4201D3CB01C01A524183098B4201D30E
S11317D08B01C01A524143098B4201D34B01C01AF9
S11317E0524103098B4201D30B01C01A5241C30871
S11317F08B4201D3CB00C01A524183088B4201D3E0
S11318008B00C01A524143088B4201D34B00C01ACB
S11318105241411A00D20146524110467047FFE737
S113182001B5002000F006F802BDC0460029F7D03B
S113183076E770477047C04670B500260C4D0D4CD6
S1131840641BA410A64209D1002600F0EDF80A4D4D
S11318500A4C641BA410A64205D170BDB300EB581A
S113186098470136EEE7B300EB5898470136F2E7A4
S1131870341A0000341A0000341A0000381A000028
S1131880F40300005C0600005C0600005C06000037
S11318905C0600005C0600005C0600005C060000BC
S11318A05C0600005C0600005C0600005C060000AC
S11318B05C0600005C0600005C0600005C0600009C
S11318C0DC0300005C0600005C0600005C0600000F
S11318D05C0600005C0600005C0600005C0600007C
S11318E05C0600005C0600005C0600005C0600006C
S11318F05C0600005C0600005C0600005C0600005C
S1131900EC0300005C0600005C0600005C060000BE
S11319105C0600005C0600005C0600005C0600003B
S11319205C0600005C0600005C0600005C0600002B
S11319305C0600005C0600005C0600005C0600001B
S1131940E40300002C040000C4030000D4030000DE
S1131950CC03000002000000030000002800000087
S1131960290000000400000005000000060000003B
S11319700700000008000000090000000A00000041
S11319800B000000200000002100000022000000E5
S113199023000000280000002900000024000000AB
S11319A025000000260000002700000008000000B9
S11319B00900000000000200000004002060800014
S11319C02060800003090000206080002060800007
S11319D0000600000B0000000B00000021220000A4
S11319E000020000000400000008000004020200DD
S11319F01C1C1D00FFFFFF00FFFFFF00FFFF000096
S1131A0008040200191A0000D2120000CE120000CD
S1131A10CE1200000013000000130000EA120000C0
S1131A20D8120000F0120000F8B5C046F8BC08BC9B
S1131A309E467047E5000000F8B5C046F8BC08BCF7
S10B1A409E467047BD00000042
S10F1A48401F0000080000000100000026
S90316994D
