S01800004144435F515549434B5F5354415254312E737265634A
S113000030200020250A0000210A0000210A0000F7
S113001000000000000000000000000000000000DC
S1130020000000000000000000000000210A0000A1
S11300300000000000000000210A0000210A000066
S1130040210A0000210A0000210A0000210A000000
S1130050210A0000210A0000210A0000210A0000F0
S1130060210A0000210A0000210A0000210A0000E0
S1130070210A0000210A0000210A0000210A0000D0
S1130080210A0000210A0000210A0000210A0000C0
S1130090210A0000210A0000210A0000210A0000B0
S11300A0210A0000210A0000210A0000210A0000A0
S11300B0210A0000210A0000210A000010B5064CA4
S11300C02378002B07D1054B002B02D0044800E015
S11300D000BF0123237010BD0400002000000000B5
S11300E0400D0000084B10B5002B03D00749084809
S11300F000E000BF07480368002B00D110BD064B89
S1130100002BFBD09847F9E700000000080000200E
S1130110400D0000400D0000000000000C4B1B6867
S1130120002B06D1EFF31083002B07D00022094BDC
S11301301A70074A136801331360704772B6BFF32D
S11301405F8F0022044B1A700132024B1A70F0E7E1
S1130150200000202400002000000020084B1A6822
S1130160013A1A601B68002B09D1064B1B78002B3F
S113017005D00122044B1A70BFF35F8F62B670473B
S1130180200000202400002000000020F0B583B0EF
S113019001AC012565700027A770257021000F2090
S11301A0064EB047802212028223DB059A61277033
S11301B0657021001C20B04703B0F0BDF1060000BB
S11301C0064B984208D0064A0023904201D01800FA
S11301D070470133DBB2FAE70023FBE70044004237
S11301E00048004210B5002300220370437083705E
S11301F0C370002103830362C36101240471C0241A
S11302006401C480017242728272C27202732A242F
S1130210025542738273C27303610275063C025530
S1130220C3840385417510BDF0B5DE4657464E467E
S11302304546E0B59FB005000E00170008008D4B41
S11302409847040001902E608B4AD36980008B4943
S113025041580B43D36133780520DB0706D51FB023
S11302603CBC90469946A246AB46F0BD2A68138C26
S11302709BB2002BFBD133781C209B07EFD47B78F7
S11302802B71002B04D17E4AD36904210B43D36123
S11302902B689A463B7804AA13707A4B1E5D1100B2
S11302A03000794B98473000784B98473B79984613
S11302B006AE774B9C463200190049C949C249C968
S11302C049C249C949C249C949C212A9634630331E
S11302D00A0043CB43C243CB43C243CB43C243CBC9
S11302E043C2019B002B04D012A9012B02D0002190
S11302F000E006A9A300674A9B589B46984522D96B
S1130300FB88984606AE624B9C463200190049C9E8
S113031049C249C949C249C949C249C949C212A9BC
S1130320634630330A0043CB43C243CB43C243CB7F
S113033043C243CB43C2019A002A12D012AB012A12
S113034010D000230EE043469800405805A900232E
S11303504B70CB708B7001330B70C0B24E4B98470F
S1130360CEE706ABD8450AD90021002601239946D9
S1130370474B984603945B460293AB4620E04246C3
S11303809000C05805A900234B70CB708B700133CB
S11303900B70C0B2404B9847E6E706AB8900C858DB
S11303A005A900234B70CB708B704B460B70C0B209
S11303B0394B98470136F6B23100029B9E4223D84E
S11303C04B46B3403A691A42F4D006A803004246A9
S11303D031CA31C331CA31C331CA31C331CA31C35D
S11303E012A843463033020031CB31C231CB31C283
S11303F031CB31C231CB31C2019A002ACDD012ABFC
S1130400012ACBD00023C9E75D46039C7B7B9B017B
S1130410BA7BD2011343DBB2524613703B7DDB013E
S11304207A781343DBB252469370FB78342B00D9AD
S11304304EE19B00194AD3589F46042210260221FC
S113044031E0797A3A7A10262DE00622102601212D
S113045029E008221026002125E000223026002170
S113046021E00022202600211DE000220026002198
S113047019E0C046C101000000080040F40C00006F
S1130480001800401C0D0000F90800008908000055
S1130490940C0000140D0000C5090000C00B0000FE
S11304A0022210260121090170230B4013435246F6
S11304B013732A68138C9BB2002BFBD17B7D17200E
S11304C03F2B00D9CBE6FA7BD2011343DBB2524671
S11304D053732A68138C9BB2002BFBD1BB78524612
S11304E053702423FB5CDB003A7B92001A43FB7AB3
S11304F01343BA7A520013433343524653812A6852
S1130500138C9BB2002BFBD13B8B002B20D0102EE5
S113051000D1BFE000D87FE0202E00D19CE0302E37
S113052016D1FA7A002A0AD0FA6980321720FF2AF3
S113053000D994E63A6A8032FF2A00D98FE6172060
S1130540FA69FF2A00DD8AE63A6AFF2A00DD86E6B8
S1130550524652891343524653812A68138C9BB2E4
S1130560002BFBD1BB8B5246D3812A68138C9BB2E0
S1130570002BFBD13B8C524613822A68138C9BB20E
S1130580002BFBD13B79FA881343524613812A6826
S1130590138C9BB2002BFBD12A33FB5C5246D370E5
S11305A0072313711D33FB5C002B1DD0FB8C494AC0
S11305B01720934200D952E6524653822A68138C7C
S11305C09BB2002BFBD13A8D80231B01D3184149E8
S11305D09BB217208B4200D941E653469A822A687F
S11305E0138C9BB2002BFBD1A2003B4BD3583B494D
S11305F0095D1B68CB401B02E021C9000B40384950
S113060052583849095D1268CA4007210A40134309
S113061052469385002022E6002E99D1FA7A002AC8
S11306200FD0FA69802109018C46624429491720B8
S11306308A4200D913E63A6A624426498A4200D9BA
S11306400DE6244A1720F969914200DD07E6396A6C
S1130650914200DD03E67BE7FA7A002A0FD0FA69BB
S1130660802189008C4662441F4917208A4200D9A0
S1130670F5E53A6A62441C498A4200D9EFE51A4A10
S11306801720F969914200DDE9E5396A914200DDFC
S1130690E5E55DE7FA7A002A0FD0FA6980210902BC
S11306A08C466244114917208A4200D9D7E53A6A38
S11306B062440E498A4200D9D1E50C4A1720F969EF
S11306C0914200DDCBE5396A914200DDC7E53FE7A1
S11306D01720C4E5FF0F0000080D0000100D0000F6
S11306E0FC0C0000040D0000FF030000FFFF0000ED
S11306F000B583B001AB80221A700A785A704A7828
S11307009A708A78DA701900014B984703B000BDDB
S1130710C509000000B585B00322104B9A60104A49
S113072053681E218B4353600E4A137D62310B4381
S113073013750D4B984701230C4A137101A94B60A3
S113074000234B7006220A700B724B720020084B78
S113075098470020074B984705B000BD001800409B
S113076000400041001000407907000000080040EC
S11307709D07000049080000064A536980210B4385
S113078053610122044B1A7019000B781342FCD1F7
S11307907047C04600080040001C004070B50400CB
S11307A00D784B78002B02D08023DB001D434B7A5D
S11307B0002B02D080231B011D43486801280FD958
S11307C0431E184231D102282DD9022300220132BE
S11307D05B009842FBD880235B011D431204154340
S11307E00B7A002B02D080239B011D430426A640D4
S11307F01149124A4B6813401E42FBD1104B9847D3
S1130800A4000D4B9C466444226A80235B001A407A
S11308102A4322626146094A4B6813401E42FBD1B7
S1130820084B984770BD0022D5E7000480239B0045
S113083018430543D4E7C046001C0040FC070000F1
S11308401D0100005D01000010B504000422824077
S113085009480A4943680B401A42FBD1084B9847A0
S1130860A400054B9C466444226A80235B00134326
S11308702362044B984710BD001C0040FC07000095
S11308801D0100005D01000010B50400094B9847EC
S1130890A000094B9C4660448022835840210B43AE
S11308A083504031403A43581A42FCD0034B984796
S11308B010BDC0461D010000001C00405D01000089
S11308C010B50400094B9847A000094B9C466044AE
S11308D08022835840218B4383504031403A43580F
S11308E01A42FCD1034B984710BDC0461D010000BD
S11308F0001C00405D01000070B504000D00054BB4
S113090098472A780F2313402034A400024AA350A6
S113091070BDC046C1080000001C004030B5D3784B
S1130920002B35D11378802B29D01B068024640238
S1130930234354780225AC4306D19478002C20D16B
S11309408024A402234341605478013C012C1CD927
S11309500D042D0CA024E4052C431C4384620D0CCF
S1130960D02424062C431C438462D478002C22D146
S11309705B031CD59378012B1ED0416117E0002343
S1130980D7E7C024E4022343DDE70D4C2340DFE72F
S113099041600C04240CA023DB05234383620C0C6C
S11309A0D0231B0623438362D378002B03D15378CF
S11309B0013B012B02D930BD8161F8E78160FAE780
S11309C0FFFFFBFF10B50A00C1090023002905D170
S11309D04309DB018221C9058C4663441F2420405E
S11309E0012181401800014B984710BD1D090000EA
S11309F07047000010B5054B9847054B9847054BC9
S1130A009847054B9847054B984710BD15070000BC
S1130A108D010000F1090000F1090000F109000056
S1130A20FEE7000010B5174A174B9A4211D01A007E
S1130A30164B9A420DD2164A03339B1A9B08013374
S1130A409B00002210480F498C58845004329A426B
S1130A50FAD1104A104B9A420AD2D3430E495B187A
S1130A6003218B4304339B18002102C29342FCD11F
S1130A700A4AFF210A4B8B4393600A4B98470A4B5F
S1130A809847FEE7400D000000000020040000200D
S1130A9004000020040000203000002000ED00E0ED
S1130AA000000000790B0000FD0A000010B58CB0B6
S1130AB001A80E4B98470E4C01AA0E4920000E4B7C
S1130AC098472268138C9BB2002BFBD10733137118
S1130AD09371137802210B431370054B1A68138C1E
S1130AE09BB2002BFBD10CB010BDC046E501000049
S1130AF028000020004800422902000070B51B4B6A
S1130B0098471B4B98471B4B1B681A8C92B2002AC0
S1130B10FBD11A7E02210A431A761A8C92B2002A59
S1130B20FBD101250424022001E015420AD1997960
S1130B30C9B22A000A400C4200D002430842F4D051
S1130B402243F2E79A8C01229A719979C9B20A4038
S1130B50480701D502200243890701D504210A432D
S1130B60520701D502229A71FEE7C046F50900003A
S1130B70AD0A00002800002070B500260C4D0D4C75
S1130B80641BA410A64209D1002600F0C9F80A4D3E
S1130B900A4C641BA410A64205D170BDB300EB58E7
S1130BA098470136EEE7B300EB5898470136F2E771
S1130BB02C0D00002C0D00002C0D0000300D000049
S1130BC06A040000D0060000D0060000D006000031
S1130BD0D0060000D0060000D0060000D0060000B9
S1130BE0D0060000D0060000D0060000D0060000A9
S1130BF0D0060000D0060000D0060000D006000099
S1130C0052040000D0060000D0060000D006000008
S1130C10D0060000D0060000D0060000D006000078
S1130C20D0060000D0060000D0060000D006000068
S1130C30D0060000D0060000D0060000D006000058
S1130C4062040000D0060000D0060000D0060000B8
S1130C50D0060000D0060000D0060000D006000038
S1130C60D0060000D0060000D0060000D006000028
S1130C70D0060000D0060000D0060000D006000018
S1130C805A040000A00400003A0400004A040000D2
S1130C9042040000020000000300000028000000DD
S1130CA02900000004000000050000000600000008
S1130CB00700000008000000090000000A0000000E
S1130CC00B000000200000002100000022000000B2
S1130CD02300000028000000290000002400000078
S1130CE02500000026000000270000000800000086
S1130CF009000000000002000000040020608000E1
S1130D0020608000030900002060800020608000D3
S1130D10000600000B0000000B0000002122000070
S1130D20F8B5C046F8BC08BC9E467047E500000014
S1130D30F8B5C046F8BC08BC9E467047BD0000002C
S1070D4001000000AA
S9030A25CD
